:03000000020003F8
:0C000300787FE4F6D8FD75811302004AF6
:10008F0000003E4141413E00000000217F01000081
:10009F00000027454545390000002A4949493600E7
:1000AF0000000C14247F04000000725151514E00C7
:1000BF0000003E4949492600000040404F50600073
:1000CF0000003649494936000000324949493E008F
:1000DF00217F013E4141413E217F0100217F0100EF
:1000EF00217F01004F497900217F010049497F009D
:1000FF00217F017808087F08217F01007949494F46
:08010F00217F01007F49494FE7
:0A01C60008087FBFDFEFF7FBFDFE26
:0B01BB00EF1FAC0670011E4C70F62216
:10018C00C2A6C2A7E4FEEEC39408748094805018F3
:10019C00EFC4131313540124FF92A5EF25E0FFD2F3
:0E01AC00A60000C2A60E80DED2A70000C2A7E9
:0101BA002222
:10011700E4F510F511E4FBFA74082BF8E6F580AE68
:1001270012E5137803C333CE33CED8F9248FF58283
:1001370074003EF583E5822BF582E5833AF583E487
:1001470093FF12018C7F327E001201BBE4FF120184
:100157008C0BBB00010AEB64084A70BC0511E51162
:1001670070020510C39450E510940040A80513E5EC
:100177001370020512D39410E51294004092E4F52F
:0501870012F513808B4E
:10000F00020117E493A3F8E493A34003F68001F2EF
:10001F0008DFF48029E493A3F85407240CC8C333F2
:10002F00C4540F4420C8834004F456800146F6DFC1
:10003F00E4800B01020408102040809001C6E47E8A
:10004F00019360BCA3FF543F30E509541FFEE493B6
:10005F00A360010ECF54C025E060A840B8E493A37D
:10006F00FAE493A3F8E493A3C8C582C8CAC583CAA8
:10007F00F0A3C8C582C8CAC583CADFE9DEE780BE60
:0101D000002E
:00000001FF
