:10078E004D47595F776F726B3A007265736572767B
:10079E006564004F4B00536F727279005175657529
:1007AE006564006E6F6E6500436F756E74004578FC
:1007BE0070697265640000003E4141413E000000D8
:1007CE0000217F010000000027454545390000004B
:1007DE002A494949360000000C14247F0400000009
:1007EE00725151514E0000003E4949492600000009
:1007FE0040404F5060000000364949493600000025
:10080E00324949493E00217F013E4141413E217F0F
:10081E000100217F0100217F01004F497900217FD6
:10082E00010049497F00217F017808087F08217F58
:0E083E0001007949494F217F01007F49494F50
:100D730042002C000042002A000042000000004212
:0F0D8300003000004800347FBFDFEFF7FBFDFEBC
:100E2100120E0D7BFF7A07798E7D017F01020CCABC
:100CF70033FE74022FF58274003EF583E0FEA3E015
:010D0700FFEC
:100D0800E4FBFAEF4E600E7C007D0A12088B0BBBE9
:090D180000010A80EEAE02AF03F7
:010D210022AF
:100D2200120D08EF64014E7002800EEF64024E70E5
:100D320004FE7F0F22EF4E7004FE7F1022EF640349
:0A0D42004E7004FE7F0E22E4FEFF57
:010D4C002284
:100D4D0090006E7401F0A374F4F090006E74FFF5D2
:100D5D00F01208E045F0600BB2A07F0A7E00120D84
:050D6D00F880E7C2A0C0
:010D7200225E
:100992003EF583E0FEA3E0FF120D22A90790006C52
:0509A200E0FEA3E0FFF0
:0809A70090006EEEF0A3EFF0EA
:1009AF0074FFA3F0A3F0E4FDFCD3900001E09D9051
:1009BF000000E09C404BED25E0FFEC33FE74022F6E
:1009CF00F58274003EF583E0FEA3E0FF90006EE039
:1009DF00B50627A3E0B50722ED25E0FFEC33FE7443
:1009EF003C2FF58274003EF583E0FEA3E064014ED8
:1009FF007008900070ECF0A3EDF00DBD00010C80BD
:100A0F00A8900070E0FCA3E0FDBCFF08BDFF057ED1
:080A1F00FF7FFF22AF05AE04CA
:010A270022AC
:0806CE0090006CE0FEA3E0FFC8
:1006D60090006EEEF0A3EFF0900030E07004A3E01F
:1006E6006414700302078D90002BE02401FF900034
:1006F6002AE03400FE7C007D1412088BED25E0FF15
:10070600EC33FE743C2FF58274003EF583E0FEA3C5
:10071600E04E600D7BFF7A0779987D017F02020C1F
:10072600CA90006EE0FCA3E0FD90002AE0FAA3E088
:10073600FB25E0FFEA33FE74022FF58274003EF5D6
:1007460083ECF0A3EDF0743C2FF58274003EF58344
:10075600E4F0A304F0EB2401FFE43AFE7C007D14F0
:1007660012088B90002AECF0A3EDF0900001E00453
:10077600F07006900000E004F0900031E004F070A4
:0807860006900030E004F022AF
:100B7E00900030E07002A3E0604E90002CE0FCA3E9
:100B8E00E0FD25E0FFEC33FE74022FF58274003E8B
:100B9E00F583E4F0A3F0743C2FF58274003EF583E8
:100BAE00E4F0A3F0ED2401FFE43CFE7C007D141282
:100BBE00088B90002CECF0A3EDF0900031E024FFB8
:090BCE00F0900030E034FFF02249
:0808F600900074EEF0A3EFF096
:1008FE009000787401F0A374F4F090007874FFF512
:10090E00F01208E045F06079E4900076F0A3F090E4
:10091E000076E0FCA3E0FD2434F58274003CF58300
:10092E00E0F580900074E0FEA3E07803C333CE338D
:10093E00CED8F924C4F58274073EF583E5822DF5F1
:10094E0082E5833CF583E493FF120C9B7F327E009D
:10095E00120E40E4FF120C9B900077E004F070063C
:10096E00900076E004F0C3900077E0940890007653
:10097E00E09400409AB2A07F0A7E00120DF80209A0
:03098E0008C2A0FC
:010991002243
:100AB400AD07AC06ED25E0FFEC33FE743A2FF5826A
:100AC40074003EF583E0FEA3E04E703DED25E0FFAB
:100AD400EC33FE74002FF58274003EF5837402F04B
:100AE400A37408F0743A2FF58274003EF583E4F0A1
:100AF400A304F0900031E004F07006900030E004AC
:100B0400F07BFF7A0779A180067BFF7A0779A47DC1
:070B1400017F02120CCA224E
:1004210090006CEEF0A3EFF01205EA90002EEEF0D2
:10043100A3EFF064024E700C1206CE7BFF7A0779AF
:10044100AA0205E290002EE07004A3E06403707B31
:1004510012099FBEFF0CBFFF097BFF7A0779B1022A
:1004610005E212099FEF2401FFE43EFE12099AEF13
:100471002401FBE43EFAC002C00312099FEF2401EC
:10048100FFE43EFE120D08900072EFF0AD01D003C3
:10049100D0027F01120C6C7BFF7A0779B67D017F58
:1004A10002120CCA900030E0FEA3E0FF120D22A957
:1004B10007900030120D03900072EFF0900030E0D1
:1004C100FAA3E0FBAD017F02020C6C90002EE070FC
:1004D10004A3E06404700B90006CE0FEA3E0FF0253
:1004E1000AB490002EE07004A3E064067071120952
:1004F1009FBEFF13BFFF107BFF7A0779B17D017F9C
:1005010002120CCA02055D12099FEF25E0FFEE33CE
:10051100FE74042FF5827400120992EF25E0FFEEBC
:1005210033FE74042FF58274003EF583E0FAA3E0F4
:10053100FBC002C00312099FEF25E0FFEE33FE74FA
:10054100042FF5827400120D00900072EFF0AD01DE
:10055100D003D0027F01120C6C120D4D020B7E9064
:10056100002EE07004A3E06407705E12099FBEFFD5
:100571000CBFFF097BFF7A0779B10205E212099FDF
:10058100EF25E0FFEE33FE74022FF58274001209AD
:1005910092EF25E0FFEE33FE74022FF58274003EE8
:1005A100F583E0FAA3E0FBC002C00312099FEF2527
:1005B100E0FFEE120CF7900072EFF0AD01D003D026
:1005C100027F01120C6C020D4D90002EE07004A30D
:1005D100E0640870131206CE120B7E7BFF7A077956
:0905E100BC7D017F02120CCA224C
:10000300E4FDFCED25E0FFEC33FE743C2FF5827438
:10001300003EF583E4F0A3F00DBD00010CED641484
:100023004C70E0020212900030E07002A3E0700F07
:100033007BFF7A0779B17D017F02120CCA8057904A
:10004300002DE025E0FF90002CE033FE74022FF535
:100053008274003EF583E0FEA3E0FF120D22A907A0
:1000630090002DE025E0FF90002CE0120CF79000AB
:1000730072EFF090002DE025E0FF90002CE033FEBE
:1000830074022FF58274003EF583E0FAA3E0FBAD22
:10009300017F02120C6C12022F900032EEF0A3EFDC
:1000A300F0EE7082EF14B4100040030200299000B8
:1000B300BF75F003A4C58325F0C583730200EF0267
:1000C300010302011702012B02013F020153020146
:1000D3006702017B02018F0201A20201B50201C87E
:1000E3000201DB0201EE020201020218120E217F5D
:1000F300017E001204217FE87E03120DF802021232
:10010300120E217F027E001204217FE87E03120D6E
:10011300F8020212120E217F037E001204217FE8EF
:100123007E03120DF8020212120E217F047E0012CA
:1001330004217FE87E03120DF8020212120E217FC2
:10014300057E001204217FE87E03120DF8020212DD
:10015300120E217F067E001204217FE87E03120D1A
:10016300F8020212120E217F077E001204217FE89B
:100173007E03120DF8020212120E217F087E001276
:1001830004217FE87E03120DF8020212120E217F72
:10019300097E001204217FE87E03120DF88070129D
:1001A3000E217F0A7E001204217FE87E03120DF8E0
:1001B300805D120E217F0B7E001204217FE87E03F7
:1001C300120DF8804A120E217F0C7E001204217F4B
:1001D300E87E03120DF88037120E217F0D7E001288
:1001E30004217FE87E03120DF88024120E217F0E76
:1001F3007E001204217FE87E03120DF88011120E97
:10020300217F0F7E001204217FE87E03120DF81276
:100213000E21020029120E217F107E001204217F7D
:0C022300E87E03120DF8120E21020029E3
:100DF800EF1FAC0670011E4C600A7D027CEFDCFE22
:040E0800DDFC80ECA1
:010E0C0022C3
:060E3100C2A58F80D2A7CC
:080E37007F027EEFDEFEDFFC0E
:010E3F002290
:0A0E4B00C2A6120E31C2A7020E3734
:100D9800E0FCA3E0FDCFCDCFCECCCE12088B7C00FB
:090DA8007D0A12088BED2430FFD6
:0A0DB100D2A6120E31C2A7020E37BF
:050DBB00EAF0A3EBF0DB
:100DC000AE07EEFB7A0064017004ED148009EB6459
:0E0DD000024A7009ED243F4480FF120E4B22B0
:100E0D007F38120E4B7F0C120E4B7F06120E4B7F4E
:040E1D0001020E4B75
:0A0E5500AC03120DC0AF04020DB192
:0B0CCA00900070EBF0A3EAF0A3E9F04B
:100CD500120DC0E4FD900070E0FBA3E0FAA3E0F97B
:100CE5008D8275830012084CFF6006120DB10D80D0
:010CF500E41A
:010CF60022DB
:040DDE00AB05A907B1
:100DE2007F017E00E4FAEAC39B500AE9FD7C00120F
:050DF20008790A80F100
:010DF70022D9
:030C6C0090007085
:100C6F00120DBBA3E0A3F0900073E0FFD3940074C8
:100C7F008094804016EF14FD7F0A120DDE900070F5
:0B0C8F00120D98900073E014F080DC60
:010C9A002237
:030B1B00900066E1
:100B1E00120DBBC3900066E064809480400F7F2B63
:100B2E00120DB1E0FFA3E090006ACF80167F2D1268
:100B3E000DB1900066E0FEA3E0FFC3E49FFFE49ECC
:100B4E0090006AF0A3EFF0900068E0A3F0900069C7
:100B5E00E0FFD39400748094804014EF14FD7F0A5C
:0F0B6E00120DDEA3120D98900069E014F080DEE6
:010B7D002255
:030BD70090007C0F
:100BDA00120DBBA3E0A3F090007FE0FFD394007452
:100BEA008094804039EF14FD7F10120DDE90007C56
:100BFA00E0FCA3E0FDCFCDCFCECCCE12088BEF54D4
:100C0A000FFEC3940A74809480EE5004243080024C
:0E0C1A002437FF120DB190007FE014F080B976
:010C280022A9
:030C2900900082B6
:100C2C00120DBBA3E0A3F0900085E0FFD3940074F9
:100C3C00809480402AEF14FD7F02120DDE9000821A
:100C4C00E0FCA3E0FDCFCDCFCECCCE12088BEF5481
:0F0C5C00012430FF120DB1900085E014F080C824
:010C6B002266
:050D9200420086000094
:0B0E4000EF1FAC0670011E4C70F62284
:100C9B00C2A6C2A7E4FEEEC39408748094805018D9
:100CAB00EFC4131313540124FF92A5EF25E0FFD2D9
:0E0CBB00A60000C2A60E80DED2A70000C2A7CF
:010CC9002208
:1005EA0030B01530B11230B20F30B30C30B409301C
:1005FA00B50630B60320B7E87FE87E03120E402026
:10060A00B00A900086E4F0A304F0806020B10B9059
:10061A000086E4F0A37402F0805220B20B900086A8
:10062A00E4F0A37403F0804420B30B900086E4F056
:10063A00A37404F0803620B40B900086E4F0A3740F
:10064A0005F0802820B50B900086E4F0A37406F02C
:10065A00801A20B60B900086E4F0A37407F0800C91
:10066A0020B709900086E4F0A37408F030B0FD309A
:10067A00B1FA30B2F730B3F430B4F130B5EE30B687
:10068A00EB30B7E87FE87E03120E4020B003020584
:10069A00EA20B1030205EA20B2030205EA20B30305
:1006AA000205EA20B4030205EA20B5030205EA209E
:1006BA00B6030205EA20B7030205EA900086E0FEC7
:0306CA00A3E0FFAB
:0106CD00220A
:10022F00E490006CF0A3F07590FFC2932097187FB5
:10023F0014FE120DF83097FD7F147E00120DF8900A
:10024F00006CE4F0A304F020961A7F147E00120DC8
:10025F00F83096FD7F147E00120DF890006CE4F0DC
:10026F00A37405F020951A7F147E00120DF83095B7
:10027F00FD7F147E00120DF890006CE4F0A374095A
:10028F00F020941A7F147E00120DF83094FD7F1425
:10029F007E00120DF890006CE4F0A3740DF07590D1
:1002AF00FFC29220971A7F147E00120DF83097FD2F
:1002BF007F147E00120DF890006CE4F0A37402F02E
:1002CF0020961A7F147E00120DF83096FD7F147E53
:1002DF0000120DF890006CE4F0A37406F020951A4C
:1002EF007F147E00120DF83095FD7F147E00120DE5
:1002FF00F890006CE4F0A3740AF020941A7F147E37
:10030F0000120DF83094FD7F147E00120DF890004E
:10031F006CE4F0A3740EF07590FFC29120971A7FD2
:10032F00147E00120DF83097FD7F147E00120DF829
:10033F0090006CE4F0A37403F020961A7F147E00F3
:10034F00120DF83096FD7F147E00120DF890006CA0
:10035F00E4F0A37407F020951A7F147E00120DF8B5
:10036F003095FD7F147E00120DF890006CE4F0A321
:10037F00740BF020941A7F147E00120DF83094FD48
:10038F007F147E00120DF890006CE4F0A3740FF050
:10039F007590FFC29020971A7F147E00120DF830CF
:1003AF0097FD7F147E00120DF890006CE4F0A3749B
:1003BF0004F020961A7F147E00120DF83096FD7F00
:1003CF00147E00120DF890006CE4F0A37408F02076
:1003DF00951A7F147E00120DF83095FD7F147E0064
:1003EF00120DF890006CE4F0A3740CF020941A7FB7
:1003FF00147E00120DF83094FD7F147E00120DF85C
:10040F0090006CE4F0A37410F090006CE0FEA3E099
:01041F00FFDD
:0104200022B9
:03000000020A28C9
:0C0A2800787FE4F6D8FD758107020A6FA4
:10084C00BB010CE58229F582E5833AF583E0225061
:10085C0006E92582F8E622BBFE06E92582F8E222AB
:0D086C00E58229F582E5833AF583E49322C5
:10087900EF8DF0A4A8F0CF8CF0A428CE8DF0A42E93
:02088900FE224D
:10088B00BC000BBE0029EF8DF084FFADF022E4CC51
:10089B00F875F008EF2FFFEE33FEEC33FCEE9DEC1A
:1008AB00984005FCEE9DFE0FD5F0E9E4CEFD22ED60
:1008BB00F8F5F0EE8420D21CFEADF075F008EF2FAA
:1008CB00FFED33FD4007985006D5F0F222C398FD9B
:0508DB000FD5F0EA2238
:1008E000A3F8E0C5F025F0F0E582158270021583CB
:0608F000E0C838F0E82228
:100A3400020003E493A3F8E493A34003F68001F2D5
:100A440008DFF48029E493A3F85407240CC8C333C3
:100A5400C4540F4420C8834004F456800146F6DF92
:100A6400E4800B0102040810204080900D73E47EA2
:100A7400019360BCA3FF543F30E509541FFEE49387
:100A8400A360010ECF54C025E060A840B8E493A34E
:100A9400FAE493A3F8E493A3C8C582C8CAC583CA79
:100AA400F0A3C8C582C8CAC583CADFE9DEE780BE31
:010D9700005B
:00000001FF
